:060000000A128A11122809
:10000800FE000308F1000408F2000A08F300831256
:1000180003137F08F4000A128A11CE2D0A128A11DE
:10002800852E00308A000408840A820700346C3464
:100038006934763465346D346F346E3469347434AD
:100048006F34723469346E3467342E3463346F34E9
:100058002E3469346E342F34613471346D34313454
:100068002F3469346E3473346534723474342E34F6
:100078007034683470343F3400346C346934763406
:1000880065346D346F346E34693474346F3472345B
:1000980069346E3467342E3463346F342E346934E3
:1000A8006E342F34613471346D3431342F346D34FF
:1000B8006F34753474342E347034683470340034CA
:1000C800413454342B344834543454345034413447
:1000D8004334543449344F344E343D34303400348E
:1000E800413454342B345334413450344234523430
:1000F8003D3431342C3431340034413454342B34CD
:1001080048345434543450345034413452344134E3
:100118003D340034413454342B344834543454344A
:100128005034523445344134443400344134543426
:100138002B34483454345434503449344E344934CC
:1001480054340034413454342B3443345234453419
:1001580047343F34003462347534743461346E3457
:1001680065343D340034563441344C3420343A3408
:1001780000346D346534743468343D340034633489
:100188006F3432343D3400344F344E34203400342C
:100198006F3468343D34003463346F343D34003494
:1001A80043344934443400344F34463446340034FC
:1001B800553452344C3400344134543400346730AC
:1001C8000A128A11F8250A128A1122300A128A1193
:1001D80096260A128A11C2300A128A11F8250A12C2
:1001E8008A1122300A128A1196260A128A112C3094
:1001F8000A128A1196260A128A1122300A128A11C4
:1002080096260A128A1101300A128A11F8250A1252
:100218008A1100308312031331020A3003193002A5
:10022800031C172918292829003031021530031911
:1002380030020318202921292829AA300A128A11F4
:10024800F8250A128A11B4290030831203133102E7
:10025800153003193002031C322933294329003091
:1002680031021F300319300203183B293C29432966
:10027800A9300A128A11F8250A128A11B429003005
:100288008312031331021F3003193002031C4D2956
:100298004E295E2900303102293003193002031833
:1002A800562957295E29B6300A128A11F8250A12EA
:1002B8008A11B4290030831203133102293003193B
:1002C8003002031C6829692979290030310233304A
:1002D800031930020318712972297929B2300A12D8
:1002E8008A11F8250A128A11B429003083120313DF
:1002F8003102333003193002031C832984299429DD
:10030800003031023D300319300203188C298D2941
:100318009429A3300A128A11F8250A128A11B429DD
:1003280000308312031331023D3003193002031CDD
:100338009E299F29B42900303102973003193002D1
:100348000318A729A829B42995300A128A11F82573
:100358000A128A11B429B429B429B429B429B429B0
:10036800831203132E08303E0A128A1196260A12A7
:100378008A11831203133208303E0A128A11962614
:100388000A128A11831203133608303E0A128A11A0
:1003980096260A128A11831203133808303E0A126D
:1003A8008A1196260A128A1122300A128A11962672
:1003B8000A128A110D300A128A1196260A128A1117
:1003C800333083120313C5008930C4000030C300E2
:1003D800C30BEC29C40BEC29C50BEC2967300A12B6
:1003E8008A11F8250A128A1122300A128A119626D1
:1003F8000A128A11BA300A128A11F8250A128A11C9
:1004080022300A128A1196260A128A112C300A12F0
:100418008A1196260A128A1131300A128A119626F2
:100428000A128A110D300A128A1196260A128A11A6
:10043800333083120313C5008930C4000030C30071
:10044800C30B242AC40B242AC50B242A4A300A12B7
:100458008A11F8250A128A110D300A128A11962675
:100468000A128A11333083120313C5008930C4007D
:100478000030C300C30B3E2AC40B3E2AC50B3E2ADC
:100488000A128A114A220A128A11080067300A12CF
:100498008A11F8250A128A1122300A128A11962620
:1004A8000A128A11C2300A128A11F8250A128A1110
:1004B80022300A128A1196260A128A112C300A1240
:1004C8008A1196260A128A1122300A128A11962651
:1004D8000A128A1127300A128A11F8250A128A117B
:1004E80022300A128A1196260A128A110D300A122F
:1004F8008A1196260A128A1167300A128A11F8257B
:100508000A128A1122300A128A1196260A128A11B0
:10051800BA300A128A11F8250A128A1122300A12F0
:100528008A1196260A128A112C300A128A119626E6
:100538000A128A1131300A128A1196260A128A1171
:100548000D300A128A1196260A128A113330831244
:100558000313C2008930C1000030C000C00BB22AAA
:10056800C10BB22AC20BB22A4A300A128A11F825E4
:100578000A128A110D300A128A1196260A128A1155
:10058800333083120313C2008930C1000030C00029
:10059800C00BCC2AC10BCC2AC20BCC2A74300A124D
:1005A8008A11F8250A128A110D300A128A11962624
:1005B8000A128A114C3083120313C200CE30C100D4
:1005C8008130C000C00BE62AC10BE62AC20BE62A1E
:1005D800640002307702031CF22AF32A2E2B8312BE
:1005E80003132608313A031DFA2AFB2A092B851220
:1005F8008D300A128A113A260A128A11AE300A126E
:100608008A119F250A128A11092B831203132608BF
:10061800323A031D102B112B1F2B85168D300A1211
:100628008A113A260A128A11BE300A128A119F25A7
:100638000A128A111F2B0310003003180130F7002B
:1006480003107708253E8400003003180130831317
:1006580080002E2B0800E83083120313BA00033001
:10066800BB004308BD01BD074208BC01BC070A1214
:100678008A11C8240A128A11831203133B08AF0196
:10068800AF073A08AE01AE07E830BA000330BB0046
:100698004308BD01BD074208BC01BC070A128A1104
:1006A8001A250A128A11831203133B08B101B107F4
:1006B8003A08B001B0076430BA000030BB00310816
:1006C800BD01BD073008BC01BC070A128A11C82445
:1006D8000A128A11831203133B08B301B3073A08BD
:1006E800B201B2076430BA000030BB003108BD0166
:1006F800BD073008BC01BC070A128A111A250A1264
:100708008A11831203133B08B501B5073A08B401EF
:10071800B4070A30BA000030BB003508BD01BD0778
:100728003408BC01BC070A128A11C8240A128A11AB
:10073800831203133B08B701B7073A08B601B60797
:100748000A30BA000030BB003508BD01BD073408C7
:10075800BC01BC070A128A111A250A128A118312CF
:1007680003133B08B901B9073A08B801B8073608B6
:10077800303E0A128A111D260A128A1183120313A7
:100788003808303E0A128A111D260A128A110800FA
:10079800C6300A128A11F8250A128A110D300A1277
:1007A8008A1196260A128A110D3083120313BF008C
:1007B800A330BE00BD30BD00BD0BE02BBE0BE02B4F
:1007C800BF0BE02B6400C6300A128A11F8250A1202
:1007D8008A110D300A128A1196260A128A110D30D2
:1007E80083120313BF00A330BE00BD30BD00BD0B94
:1007F800FB2BBE0BFB2BBF0BFB2B64008C300A12B0
:100808008A11F8250A128A110D300A128A119626C1
:100818000A128A110D3083120313BF00A330BE00E1
:10082800BD30BD00BD0B162CBE0B162CBF0B162CF5
:1008380064005A300A128A11F8250A128A110D30FA
:100848000A128A1196260A128A111A308312031381
:10085800BF004530BE007E30BD00BD0B312CBE0B45
:10086800312CBF0B312C80300A128A11F8250A125C
:100878008A110D300A128A1196260A128A111A3024
:1008880083120313BF004530BE007E30BD00BD0B90
:100898004B2CBE0B4B2CBF0B4B2C08008E308316F9
:1008A80003139F0086018312031386010130831608
:1008B800031385008312031385018316031388012C
:1008C800831203138801833083160313870083126E
:1008D8000313870189018316031389018312031304
:1008E80085160A128A1170260A128A110A128A11AA
:1008F800CC230A128A110A128A1157260A128A115F
:1009080080300A128A113A260A128A119D300A1278
:100918008A119F250A128A1187300A128A113A26EB
:100928000A128A11972C0A128A1160250A128A1152
:1009380085300A128A113A260A128A118312031381
:100948002D08C301C3072C08C201C2070A128A1165
:100958002F230A128A110D3083120313C800A33003
:10096800C700BD30C600C60BB72CC70BB72CC80BC9
:10097800B72C64000A128A11E3200A128A11972CF4
:10098800972C0A128A111228003083120313C00010
:100998000030C1003B083A040319D32CD42C122D83
:1009A800BF010314BF0DE42C01300310BA0DBB0DB9
:1009B800FF3E031DD92C0130BE003E08BF07E42CC2
:1009C800BB1FE72CE82CD82CEA2CEA2C01300310AA
:1009D800C00DC10DFF3E031DEB2C3B083D02031D5E
:1009E800F72C3A083C02031CFA2CFB2C032D3A087E
:1009F800BC023B08031CBD03BD024014032D01309B
:100A08000310BB0CBA0CFF3E031D042D0130BF02BE
:100A1800031D0F2D102DEA2C122D122D4108BB019C
:100A2800BB074008BA01BA07192D0800831203133F
:100A38003B083A040319212D222D582DBF01031418
:100A4800BF0D322D01300310BA0DBB0DFF3E031D43
:100A5800272D0130BE003E08BF07322DBB1F352DA4
:100A6800362D262D382D382D3B083D02031D3E2DF1
:100A78003A083C02031C412D422D492D3A08BC027C
:100A88003B08031CBD03BD02492D01300310BB0CFC
:100A9800BA0CFF3E031D4A2D0130BF02031D552D20
:100AA800562D382D582D582D3D08BB01BB073C0845
:100AB800BA01BA075F2D0800C530831203139F00DF
:100AC800652D1F19682D692D652D6A2D8316031351
:100AD8001E0883120313BA00BB013A08AA003B0898
:100AE800AB001E08BA00BB013A08F5003B08F60047
:100AF8007608BB007508BA000830FF000310BA0D6D
:100B0800BB0DFF0B822D3A08F5003B08F6002B08B9
:100B1800BB002A08BA0001300310BB0CBA0CFF3E18
:100B2800031D902D75083A07AC0076080318760A5D
:100B38003B07AD00080083120313BF00BE2D3F081A
:100B480084000A128A1115200A128A110A128A11BF
:100B58001D260A128A11013083120313BD003D08B5
:100B6800BF070730BE007D30BD00BD0BB92DBE0BE1
:100B7800B92DBE2D831203133F0884000A128A116F
:100B880015200A128A110038031DCB2DCC2DA32D58
:100B9800CD2D08008C1ED12DD22DED2D8C121A08CA
:100BA800F0007708253E840070088313800025082C
:100BB8002A3A031DE02DE12DE62D0130F0007008E2
:100BC800F707ED2D0310003003180130F700ED2D65
:100BD800ED2D7408FF0073088A00720884007108FC
:100BE8008300FE0E7E0E090083120313BC000F2E35
:100BF8003C0884000A128A1115200A128A110A1266
:100C08008A1196260A128A11013083120313BB0037
:100C18003B08BC070F2E3C0884000A128A111520D5
:100C28000A128A110038031D1A2E1B2EFC2D1C2EA9
:100C3800080083120313BC003C088800051509143A
:100C48004130BB00EE30BA00BA0B282EBB0B282E61
:100C580064008312031309104130BB00EE30BA0060
:100C6800BA0B342EBB0B342E640008008312031316
:100C7800BC003C088800051109144130BB00EE3067
:100C8800BA00BA0B452EBB0B452E64008312031322
:100C980009104130BB00EE30BA00BA0B512EBB0B25
:100CA800512E6400080001300A128A113A260A12ED
:100CB8008A1106300A128A113A260A128A110C3051
:100CC8000A128A113A260A128A1138300A128A112F
:100CD8003A260A128A1108008130831603139900F4
:100CE80018151812831203139817831603138C16FA
:100CF8008312031318168316031398168B170B17F2
:100D08000800F501F601F701F8018313203084008B
:100D18003A300A128A11A2260A128A1183010A128B
:100D28008A11522C83120313BA003A0899009C2E98
:100D38000C1E9F2EA02E9C2E0C1208006400800111
:0C0D4800840A0406031900340406A32EDC
:00000001FF
