:060000000A128A11122809
:10000800FE000308F1000408F2000A08F300831256
:1000180003137F08F4000A128A115E2D0A128A114E
:10002800152E00308A000408840A820700346C34D4
:100038006934763465346D346F346E3469347434AD
:100048006F34723469346E3467342E3463346F34E9
:100058002E3469346E342F34613467347234693421
:10006800303431342F3469346E3473346534723437
:1000780074342E347034683470343F3474346534D6
:100088006D3470343D3400346C34693476346534FE
:100098006D346F346E34693474346F347234693447
:1000A8006E3467342E3463346F342E3469346E34CE
:1000B8002F346134673472346934303431342F3436
:1000C8006D346F34753474342E347034683470344D
:1000D8000034413454342B34483454345434503478
:1000E80041344334543449344F344E343D3430343D
:1000F80000344E346F3441346E3469346D346134B5
:100108006C34443465347434653463347434003482
:10011800413454342B3453344134503442345234FF
:100128003D3431342C3431340034413454342B349C
:1001380048345434543450345034413452344134B3
:100148003D340034413454342B344834543454341A
:1001580050345234453441344434003441345434F6
:100168002B34483454345434503449344E3449349C
:1001780054340034413454342B34433452344534E9
:1001880047343F34003426346D346F346934733463
:1001980074343D340034263461346E3469346D343B
:1001A8003D34003456344F344C3454343A340034EB
:1001B80044345234593420340034463455344C34A1
:1001C8004C3400344F344E342034003443344934F2
:1001D800443400344F3446344634003455345234B1
:1001E8004C3400344134543400347F300A128A11BC
:1001F80088250A128A1122300A128A1126260A1222
:100208008A11D8300A128A1188250A128A112230D6
:100218000A128A1126260A128A112C300A128A1109
:1002280026260A128A1122300A128A1126260A1252
:100238008A112E300A128A1188250A128A11223050
:100248000A128A1126260A128A110D300A128A11F8
:1002580026260A128A117F300A128A1188250A1264
:100268008A1122300A128A1126260A128A11D030DF
:100278000A128A1188250A128A1122300A128A1152
:1002880026260A128A112C300A128A1126260A12E8
:100298008A1131300A128A1126260A128A110D3063
:1002A8000A128A1126260A128A113330831203137E
:1002B800C2008930C1000030C000C00B6129C10BE9
:1002C8006129C20B612953300A128A1188250A1242
:1002D8008A110D300A128A1126260A128A11333021
:1002E80083120313C2008930C1000030C000C00B64
:1002F8007B29C10B7B29C20B7B298C300A128A11FE
:1003080088250A128A110D300A128A1126260A1225
:100318008A114C3083120313C200CE30C1008130E1
:10032800C000C00B9529C10B9529C20B9529640003
:1003380002307702031CA129A229DD2983120313A5
:100348002608313A031DA929AA29B82985128D3012
:100358000A128A11CA250A128A11CC300A128A1185
:100368002F250A128A11B829831203132608323A54
:10037800031DBF29C029CE2985168D300A128A117E
:10038800CA250A128A11D4300A128A112F250A1294
:100398008A11CE290310003003180130F70003102A
:1003A8007708253E8400003003180130831380004D
:1003B800DD2908007F300A128A1188250A128A115D
:1003C80022300A128A1126260A128A11D8300A12F5
:1003D8008A1188250A128A1122300A128A112626C1
:1003E8000A128A112C300A128A1126260A128A1138
:1003F80022300A128A1126260A128A1101300A129C
:100408008A1188250A128A11831203133608303E8E
:100418000A128A1126260A128A118312031338082F
:10042800303E0A128A1126260A128A11AD300A12A3
:100438008A1188250A128A11831203130718252A9C
:10044800262A2D2AC7300A128A1188250A128A11EB
:10045800332AC2300A128A1188250A128A11B53045
:100468000A128A1188250A128A1183120313871C1B
:100478003E2A3F2A462A65300A128A1188250A121E
:100488008A114D2A63300A128A1188250A128A11A4
:100498004D2A22300A128A1126260A128A110D3094
:1004A8000A128A1126260A128A113330831203137C
:1004B800C5008930C4000030C300C30B612AC40BD7
:1004C800612AC50B612A7F300A128A1188250A120F
:1004D8008A1122300A128A1126260A128A11D0306D
:1004E8000A128A1188250A128A1122300A128A11E0
:1004F80026260A128A112C300A128A1126260A1276
:100508008A1131300A128A1126260A128A110D30F0
:100518000A128A1126260A128A113330831203130B
:10052800C5008930C4000030C300C30B992AC40B2E
:10053800992AC50B992A53300A128A1188250A125A
:100548008A110D300A128A1126260A128A113330AE
:1005580083120313C5008930C4000030C300C30BE5
:10056800B32AC40BB32AC50BB32A0A128A11F9207D
:100578000A128A110800E83083120313BA00033004
:10058800BB004308BD01BD074208BC01BC070A12F5
:100598008A1158240A128A11831203133B08AF01E7
:1005A800AF073A08AE01AE07E830BA000330BB0027
:1005B8004308BD01BD074208BC01BC070A128A11E5
:1005C800AA240A128A11831203133B08B101B10746
:1005D8003A08B001B0076430BA000030BB003108F7
:1005E800BD01BD073008BC01BC070A128A11582496
:1005F8000A128A11831203133B08B301B3073A089E
:10060800B201B2076430BA000030BB003108BD0146
:10061800BD073008BC01BC070A128A11AA240A12B5
:100628008A11831203133B08B501B5073A08B401D0
:10063800B4070A30BA000030BB003508BD01BD0759
:100648003408BC01BC070A128A1158240A128A11FC
:10065800831203133B08B701B7073A08B601B60778
:100668000A30BA000030BB003508BD01BD073408A8
:10067800BC01BC070A128A11AA240A128A11831221
:1006880003133B08B901B9073A08B801B807360897
:10069800303E0A128A11AD250A128A1183120313F9
:1006A8003808303E0A128A11AD250A128A1108004C
:1006B800DC300A128A1188250A128A110D300A12B2
:1006C8008A1126260A128A110D3083120313BF00DD
:1006D800A330BE00BD30BD00BD0B702BBE0B702B10
:1006E800BF0B702B6400DC300A128A1188250A12AD
:1006F8008A110D300A128A1126260A128A110D3023
:1007080083120313BF00A330BE00BD30BD00BD0B74
:100718008B2BBE0B8B2BBF0B8B2B6400A4300A12C8
:100728008A1188250A128A110D300A128A11262682
:100738000A128A110D3083120313BF00A330BE00C2
:10074800BD30BD00BD0BA62BBE0BA62BBF0BA62B29
:10075800640072300A128A1188250A128A110D3033
:100768000A128A1126260A128A111A3083120313D2
:10077800BF004530BE007E30BD00BD0BC12BBE0B97
:10078800C12BBF0BC12B98300A128A1188250A1277
:100798008A110D300A128A1126260A128A111A3075
:1007A80083120313BF004530BE007E30BD00BD0B71
:1007B800DB2BBE0BDB2BBF0BDB2B08008E3083162D
:1007C80003139F00860183120313860101308316E9
:1007D800031385008312031385018316031388010D
:1007E800831203138801833083160313870083124F
:1007F80003138701890183160313890183120313E5
:1008080085160A128A1100260A128A110A128A11FA
:100818005C230A128A110A128A11E7250A128A1120
:1008280080300A128A11CA250A128A11BC300A12AB
:100838008A112F250A128A1187300A128A11CA25AD
:100848000A128A11272C0A128A11F0240A128A1114
:1008580085300A128A11CA250A128A1183120313D3
:100868002D08C301C3072C08C201C2070A128A1146
:10087800BF220A128A110D3083120313C800A33055
:10088800C700BD30C600C60B472CC70B472CC80B8A
:10089800472C64000A128A11DE210A128A11272CB9
:1008A800272C0A128A111228003083120313C00061
:1008B8000030C1003B083A040319632C642CA22CB5
:1008C800BF010314BF0D742C01300310BA0DBB0D0A
:1008D800FF3E031D692C0130BE003E08BF07742C83
:1008E800BB1F772C782C682C7A2C7A2C01300310BB
:1008F800C00DC10DFF3E031D7B2C3B083D02031DAF
:10090800872C3A083C02031C8A2C8B2C932C3A081F
:10091800BC023B08031CBD03BD024014932C0130EC
:100928000310BB0CBA0CFF3E031D942C0130BF0210
:10093800031D9F2CA02C7A2CA22CA22C4108BB01B1
:10094800BB074008BA01BA07A92C08008312031391
:100958003B083A040319B12CB22CE82CBF0103144C
:10096800BF0DC22C01300310BA0DBB0DFF3E031D95
:10097800B72C0130BE003E08BF07C22CBB1FC52CD8
:10098800C62CB62CC82CC82C3B083D02031DCE2C07
:100998003A083C02031CD12CD22CD92C3A08BC02B0
:1009A8003B08031CBD03BD02D92C01300310BB0C4E
:1009B800BA0CFF3E031DDA2C0130BF02031DE52CE3
:1009C800E62CC82CE82CE82C3D08BB01BB073C08EA
:1009D800BA01BA07EF2C0800C530831203139F0031
:1009E800F52C1F19F82CF92CF52CFA2C8316031367
:1009F8001E0883120313BA00BB013A08AA003B0879
:100A0800AB001E08BA00BB013A08F5003B08F60027
:100A18007608BB007508BA000830FF000310BA0D4D
:100A2800BB0DFF0B122D3A08F5003B08F6002B080A
:100A3800BB002A08BA0001300310BB0CBA0CFF3EF9
:100A4800031D202D75083A07AC0076080318760AAE
:100A58003B07AD00080083120313BF004E2D3F086B
:100A680084000A128A1115200A128A110A128A11A0
:100A7800AD250A128A11013083120313BD003D0807
:100A8800BF070730BE007D30BD00BD0B492DBE0B32
:100A9800492D4E2D831203133F0884000A128A1130
:100AA80015200A128A110038031D5B2D5C2D332D89
:100AB8005D2D08008C1E612D622D7D2D8C121A086B
:100AC800F0007708253E840070088313800025080D
:100AD8002A3A031D702D712D762D0130F000700813
:100AE800F7077D2D0310003003180130F7007D2D26
:100AF8007D2D7408FF0073088A007208840071084D
:100B08008300FE0E7E0E090083120313BC009F2D86
:100B18003C0884000A128A1115200A128A110A1246
:100B28008A1126260A128A11013083120313BB0088
:100B38003B08BC079F2D3C0884000A128A11152027
:100B48000A128A110038031DAA2DAB2D8C2DAC2D4D
:100B5800080083120313BC003C088800051509141B
:100B68004130BB00EE30BA00BA0BB82DBB0BB82D24
:100B780064008312031309104130BB00EE30BA0041
:100B8800BA0BC42DBB0BC42D6400080083120313D9
:100B9800BC003C088800051109144130BB00EE3048
:100BA800BA00BA0BD52DBB0BD52D640083120313E5
:100BB80009104130BB00EE30BA00BA0BE12DBB0B77
:100BC800E12D6400080001300A128A11CA250A12B0
:100BD8008A1106300A128A11CA250A128A110C30A3
:100BE8000A128A11CA250A128A1138300A128A1181
:100BF800CA250A128A110800813083160313990046
:100C080018151812831203139817831603138C16DA
:100C18008312031318168316031398168B170B17D2
:100C28000800F501F601F701F8018313203084006C
:100C38003A300A128A1132260A128A1183010A12DC
:100C48008A11E22B83120313BA003A0899002C2E5A
:100C58000C1E2F2E302E2C2E0C1208006400800142
:0C0C6800840A0406031900340406332E2D
:00000001FF
